2026-06-05 09:29:58.142 [FixSession] (DEBUG) Sending 8=FIX.4.2|9=69|35=A|49=TRADER01|56=CME_GW|34=1|52=20260605-09:29:58.142|98=0|108=30|10=005
2026-06-05 09:29:58.391 [FixSession] (DEBUG) Receiving 8=FIX.4.2|9=69|35=A|49=CME_GW|56=TRADER01|34=1|52=20260605-09:29:58.391|98=0|108=30|10=011
2026-06-05 09:30:00.102 [FixSession] (DEBUG) Sending 8=FIX.4.2|9=191|35=D|49=TRADER01|56=CME_GW|34=2|52=20260605-09:30:00.102|11=ES-20260605-BUY-001|1=ACCT-FUT-001|21=1|55=ESU6|167=FUT|200=202609|207=CME|54=1|38=2|40=2|44=5824.25|59=0|60=20260605-09:30:00.102|10=139
2026-06-05 09:30:00.215 [FixSession] (DEBUG) Receiving 8=FIX.4.2|9=249|35=8|49=CME_GW|56=TRADER01|34=2|52=20260605-09:30:00.215|37=CME-847291000|11=ES-20260605-BUY-001|17=CME-EX-10010001|20=0|150=0|39=0|55=ESU6|167=FUT|200=202609|207=CME|54=1|38=2|40=2|44=5824.25|32=0|31=0.00|14=0|151=2|6=0.00|60=20260605-09:30:00.102|10=209
2026-06-05 09:30:00.847 [FixSession] (DEBUG) Receiving 8=FIX.4.2|9=255|35=8|49=CME_GW|56=TRADER01|34=3|52=20260605-09:30:00.847|37=CME-847291000|11=ES-20260605-BUY-001|17=CME-EX-10010002|20=0|150=1|39=1|55=ESU6|167=FUT|200=202609|207=CME|54=1|38=2|40=2|44=5824.25|32=1|31=5824.25|14=1|151=1|6=5824.25|60=20260605-09:30:00.847|10=066
2026-06-05 09:30:01.203 [FixSession] (DEBUG) Receiving 8=FIX.4.2|9=256|35=8|49=CME_GW|56=TRADER01|34=4|52=20260605-09:30:01.203|37=CME-847291000|11=ES-20260605-BUY-001|17=CME-EX-10010003|20=0|150=2|39=2|55=ESU6|167=FUT|200=202609|207=CME|54=1|38=2|40=2|44=5824.25|32=1|31=5824.50|14=2|151=0|6=5824.375|60=20260605-09:30:01.203|10=099
2026-06-05 09:31:00.000 [FixSession] (DEBUG) Sending 8=FIX.4.2|9=57|35=0|49=TRADER01|56=CME_GW|34=3|52=20260605-09:31:00.000|10=191
2026-06-05 09:31:00.081 [FixSession] (DEBUG) Receiving 8=FIX.4.2|9=57|35=0|49=CME_GW|56=TRADER01|34=5|52=20260605-09:31:00.081|10=202
2026-06-05 09:45:00.000 [FixSession] (DEBUG) Sending 8=FIX.4.2|9=77|35=5|49=TRADER01|56=CME_GW|34=4|52=20260605-09:45:00.000|58=Session complete|10=212
2026-06-05 09:45:00.109 [FixSession] (DEBUG) Receiving 8=FIX.4.2|9=57|35=5|49=CME_GW|56=TRADER01|34=6|52=20260605-09:45:00.109|10=214
