2026-06-05 09:29:58.142 [FixSession] (DEBUG) Sending 8=FIX.4.2|9=71|35=A|49=TRADER01|56=COMEX_GW|34=1|52=20260605-09:29:58.142|98=0|108=30|10=165
2026-06-05 09:29:58.408 [FixSession] (DEBUG) Receiving 8=FIX.4.2|9=71|35=A|49=COMEX_GW|56=TRADER01|34=1|52=20260605-09:29:58.408|98=0|108=30|10=170
2026-06-05 09:33:42.115 [FixSession] (DEBUG) Sending 8=FIX.4.2|9=195|35=D|49=TRADER01|56=COMEX_GW|34=2|52=20260605-09:33:42.115|11=GC-20260605-BUY-001|1=ACCT-FUT-001|21=1|55=GCU6|167=FUT|200=202609|207=COMEX|54=1|38=3|40=2|44=3248.60|59=0|60=20260605-09:33:42.115|10=217
2026-06-05 09:33:42.280 [FixSession] (DEBUG) Receiving 8=FIX.4.2|9=255|35=8|49=COMEX_GW|56=TRADER01|34=2|52=20260605-09:33:42.280|37=COMEX-558291000|11=GC-20260605-BUY-001|17=CMX-EX-30182001|20=0|150=0|39=0|55=GCU6|167=FUT|200=202609|207=COMEX|54=1|38=3|40=2|44=3248.60|32=0|31=0.00|14=0|151=3|6=0.00|60=20260605-09:33:42.115|10=220
2026-06-05 09:34:10.500 [FixSession] (DEBUG) Sending 8=FIX.4.2|9=236|35=G|49=TRADER01|56=COMEX_GW|34=3|52=20260605-09:34:10.500|11=GC-20260605-BUY-001-AMD|41=GC-20260605-BUY-001|37=COMEX-558291000|1=ACCT-FUT-001|21=1|55=GCU6|167=FUT|200=202609|207=COMEX|54=1|38=3|40=2|44=3251.20|60=20260605-09:34:10.500|10=207
2026-06-05 09:34:10.692 [FixSession] (DEBUG) Receiving 8=FIX.4.2|9=282|35=8|49=COMEX_GW|56=TRADER01|34=3|52=20260605-09:34:10.692|37=COMEX-558291000|11=GC-20260605-BUY-001-AMD|41=GC-20260605-BUY-001|17=CMX-EX-30182002|20=0|150=5|39=5|55=GCU6|167=FUT|200=202609|207=COMEX|54=1|38=3|40=2|44=3251.20|32=0|31=0.00|14=0|151=3|6=0.00|60=20260605-09:34:10.500|10=164
2026-06-05 09:34:11.044 [FixSession] (DEBUG) Receiving 8=FIX.4.2|9=265|35=8|49=COMEX_GW|56=TRADER01|34=4|52=20260605-09:34:11.044|37=COMEX-558291000|11=GC-20260605-BUY-001-AMD|17=CMX-EX-30182003|20=0|150=2|39=2|55=GCU6|167=FUT|200=202609|207=COMEX|54=1|38=3|40=2|44=3251.20|32=3|31=3251.20|14=3|151=0|6=3251.20|60=20260605-09:34:11.044|10=016
2026-06-05 09:45:00.000 [FixSession] (DEBUG) Sending 8=FIX.4.2|9=79|35=5|49=TRADER01|56=COMEX_GW|34=4|52=20260605-09:45:00.000|58=Session complete|10=125
2026-06-05 09:45:00.108 [FixSession] (DEBUG) Receiving 8=FIX.4.2|9=59|35=5|49=COMEX_GW|56=TRADER01|34=5|52=20260605-09:45:00.108|10=125
