2026-06-05 09:29:58.142 [FixSession] (DEBUG) Sending 8=FIX.4.2|9=69|35=A|49=TRADER01|56=CME_GW|34=1|52=20260605-09:29:58.142|98=0|108=30|10=005
2026-06-05 09:29:58.391 [FixSession] (DEBUG) Receiving 8=FIX.4.2|9=69|35=A|49=CME_GW|56=TRADER01|34=1|52=20260605-09:29:58.391|98=0|108=30|10=011
2026-06-05 09:30:00.050 [FixSession] (DEBUG) Sending 8=FIX.4.2|9=176|35=D|49=TRADER01|56=CME_GW|34=2|52=20260605-09:30:00.050|11=ES-20260605-001|1=ACCT-FUT-001|21=1|55=ESU6|167=FUT|200=202609|207=CME|54=1|38=1|40=1|59=0|60=20260605-09:30:00.050|10=101
2026-06-05 09:30:00.183 [FixSession] (DEBUG) Receiving 8=FIX.4.2|9=230|35=8|49=CME_GW|56=TRADER01|34=2|52=20260605-09:30:00.183|37=CME-ES-9001000|11=ES-20260605-001|17=EX-9001001|20=0|150=0|39=0|55=ESU6|167=FUT|200=202609|207=CME|54=1|38=1|40=1|32=0|31=0.00|14=0|151=1|6=0.00|60=20260605-09:30:00.050|10=197
2026-06-05 09:30:00.195 [FixSession] (DEBUG) Receiving 8=FIX.4.2|9=236|35=8|49=CME_GW|56=TRADER01|34=3|52=20260605-09:30:00.195|37=CME-ES-9001000|11=ES-20260605-001|17=EX-9001002|20=0|150=2|39=2|55=ESU6|167=FUT|200=202609|207=CME|54=1|38=1|40=1|32=1|31=5831.00|14=1|151=0|6=5831.00|60=20260605-09:30:00.195|10=033
2026-06-05 09:31:15.330 [FixSession] (DEBUG) Sending 8=FIX.4.2|9=188|35=D|49=TRADER01|56=CME_GW|34=3|52=20260605-09:31:15.330|11=NQ-20260605-001|1=ACCT-FUT-001|21=1|55=NQU6|167=FUT|200=202609|207=CME|54=1|38=1|40=2|44=20882.50|59=0|60=20260605-09:31:15.330|10=197
2026-06-05 09:31:15.498 [FixSession] (DEBUG) Receiving 8=FIX.4.2|9=242|35=8|49=CME_GW|56=TRADER01|34=4|52=20260605-09:31:15.498|37=CME-NQ-9002000|11=NQ-20260605-001|17=EX-9002001|20=0|150=0|39=0|55=NQU6|167=FUT|200=202609|207=CME|54=1|38=1|40=2|44=20882.50|32=0|31=0.00|14=0|151=1|6=0.00|60=20260605-09:31:15.330|10=055
2026-06-05 09:32:05.780 [FixSession] (DEBUG) Sending 8=FIX.4.2|9=185|35=D|49=TRADER01|56=CME_GW|34=4|52=20260605-09:32:05.780|11=CL-20260605-001|1=ACCT-FUT-001|21=1|55=CLU6|167=FUT|200=202609|207=CME|54=2|38=3|40=2|44=67.85|59=0|60=20260605-09:32:05.780|10=041
2026-06-05 09:32:05.941 [FixSession] (DEBUG) Receiving 8=FIX.4.2|9=239|35=8|49=CME_GW|56=TRADER01|34=5|52=20260605-09:32:05.941|37=CME-CL-9003000|11=CL-20260605-001|17=EX-9003001|20=0|150=0|39=0|55=CLU6|167=FUT|200=202609|207=CME|54=2|38=3|40=2|44=67.85|32=0|31=0.00|14=0|151=3|6=0.00|60=20260605-09:32:05.780|10=136
2026-06-05 09:33:00.100 [FixSession] (DEBUG) Sending 8=FIX.4.2|9=224|35=G|49=TRADER01|56=CME_GW|34=5|52=20260605-09:33:00.100|11=NQ-20260605-001-AMD|41=NQ-20260605-001|37=CME-NQ-9002000|1=ACCT-FUT-001|21=1|55=NQU6|167=FUT|200=202609|207=CME|54=1|38=1|40=2|44=20886.75|60=20260605-09:33:00.100|10=112
2026-06-05 09:33:00.274 [FixSession] (DEBUG) Receiving 8=FIX.4.2|9=265|35=8|49=CME_GW|56=TRADER01|34=6|52=20260605-09:33:00.274|37=CME-NQ-9002000|11=NQ-20260605-001-AMD|41=NQ-20260605-001|17=EX-9002002|20=0|150=5|39=5|55=NQU6|167=FUT|200=202609|207=CME|54=1|38=1|40=2|44=20886.75|32=0|31=0.00|14=0|151=1|6=0.00|60=20260605-09:33:00.100|10=000
2026-06-05 09:33:00.901 [FixSession] (DEBUG) Receiving 8=FIX.4.2|9=254|35=8|49=CME_GW|56=TRADER01|34=7|52=20260605-09:33:00.901|37=CME-NQ-9002000|11=NQ-20260605-001-AMD|17=EX-9002003|20=0|150=2|39=2|55=NQU6|167=FUT|200=202609|207=CME|54=1|38=1|40=2|44=20886.75|32=1|31=20886.75|14=1|151=0|6=20886.75|60=20260605-09:33:00.901|10=007
2026-06-05 09:34:12.550 [FixSession] (DEBUG) Receiving 8=FIX.4.2|9=241|35=8|49=CME_GW|56=TRADER01|34=8|52=20260605-09:34:12.550|37=CME-CL-9003000|11=CL-20260605-001|17=EX-9003002|20=0|150=1|39=1|55=CLU6|167=FUT|200=202609|207=CME|54=2|38=3|40=2|44=67.85|32=1|31=67.85|14=1|151=2|6=67.85|60=20260605-09:34:12.550|10=019
2026-06-05 09:35:02.810 [FixSession] (DEBUG) Receiving 8=FIX.4.2|9=243|35=8|49=CME_GW|56=TRADER01|34=9|52=20260605-09:35:02.810|37=CME-CL-9003000|11=CL-20260605-001|17=EX-9003003|20=0|150=2|39=2|55=CLU6|167=FUT|200=202609|207=CME|54=2|38=3|40=2|44=67.85|32=2|31=67.84|14=3|151=0|6=67.8433|60=20260605-09:35:02.810|10=124
2026-06-05 09:37:30.200 [FixSession] (DEBUG) Sending 8=FIX.4.2|9=176|35=D|49=TRADER01|56=CME_GW|34=6|52=20260605-09:37:30.200|11=ES-20260605-002|1=ACCT-FUT-001|21=1|55=ESU6|167=FUT|200=202609|207=CME|54=2|38=1|40=1|59=0|60=20260605-09:37:30.200|10=121
2026-06-05 09:37:30.348 [FixSession] (DEBUG) Receiving 8=FIX.4.2|9=231|35=8|49=CME_GW|56=TRADER01|34=10|52=20260605-09:37:30.348|37=CME-ES-9004000|11=ES-20260605-002|17=EX-9004001|20=0|150=0|39=0|55=ESU6|167=FUT|200=202609|207=CME|54=2|38=1|40=1|32=0|31=0.00|14=0|151=1|6=0.00|60=20260605-09:37:30.200|10=017
2026-06-05 09:37:30.362 [FixSession] (DEBUG) Receiving 8=FIX.4.2|9=256|35=8|49=CME_GW|56=TRADER01|34=11|52=20260605-09:37:30.362|37=CME-ES-9004000|11=ES-20260605-002|17=EX-9004002|20=0|150=2|39=2|55=ESU6|167=FUT|200=202609|207=CME|54=2|38=1|40=1|32=1|31=5843.75|14=1|151=0|6=5843.75|58=Position closed|60=20260605-09:37:30.362|10=030
2026-06-05 09:30:30.000 [FixSession] (DEBUG) Sending 8=FIX.4.2|9=57|35=0|49=TRADER01|56=CME_GW|34=7|52=20260605-09:30:30.000|10=197
2026-06-05 09:30:30.078 [FixSession] (DEBUG) Receiving 8=FIX.4.2|9=58|35=0|49=CME_GW|56=TRADER01|34=12|52=20260605-09:30:30.078|10=001
2026-06-05 09:36:00.000 [FixSession] (DEBUG) Sending 8=FIX.4.2|9=57|35=0|49=TRADER01|56=CME_GW|34=8|52=20260605-09:36:00.000|10=201
2026-06-05 09:36:00.063 [FixSession] (DEBUG) Receiving 8=FIX.4.2|9=58|35=0|49=CME_GW|56=TRADER01|34=13|52=20260605-09:36:00.063|10=255
2026-06-05 09:45:00.000 [FixSession] (DEBUG) Sending 8=FIX.4.2|9=83|35=5|49=TRADER01|56=CME_GW|34=9|52=20260605-09:45:00.000|58=End of morning session|10=195
2026-06-05 09:45:00.118 [FixSession] (DEBUG) Receiving 8=FIX.4.2|9=58|35=5|49=CME_GW|56=TRADER01|34=14|52=20260605-09:45:00.118|10=006
